:100000000EC028C027C026C025C024C023C022C0DF
:1000100021C020C06FC01EC01DC01CC01BC0112449
:100020001FBECFE5D2E0DEBFCDBF10E0A0E6B0E05E
:10003000E8E5F5E002C005900D92A238B107D9F7C6
:1000400020E0A2E8B0E001C01D92A739B207E1F7B5
:100050006AD280C2D5CFCF93C62F972F862F7ED15D
:10006000C3708C2F90E07AD198B3C23041F0C33086
:1000700041F0C13011F081E005C082E003C084E0AE
:1000800001C080E1892788BB8DE690E0CF91CCC08C
:100090009093900080938F008AB582608ABD89B763
:1000A000806189BF08958093610060936000089526
:1000B000209186002F5F20938600243080F430E06A
:1000C000F901EE0FFF1FE157FF4F91838083F90184
:1000D000E557FF4F6083F901E957FF4F60830895AB
:1000E00078948091600089BD93B780916100892BDD
:1000F00083BF08951F920F920FB60F921124EF92B3
:10010000FF920F931F932F933F934F935F936F93A0
:100110007F938F939F93AF93BF93CF93DF93EF938F
:10012000FF938FE8E82E80E0F82E07E810E0C0E0AB
:10013000D0E0D701ED91FD917D01309751F580918F
:10014000820090918300A0918400B0918500019677
:10015000A11DB11D8093820090938300A093840021
:10016000B0938500FF91EF91DF91CF91BF91AF9157
:100170009F918F917F916F915F914F913F912F91BF
:100180001F910F91FF90EF900F900FBE0F901F9057
:100190001895D8018C91811116C0209751F4609167
:1001A0008200709183008091840090918500099570
:1001B00003C082E890E00995FE01E557FF4F80817A
:1001C000F801808303C08150D8018C9321960F5F82
:1001D0001F4FC430D10509F0ACCFB1CF809362007E
:1001E0000895F894C39890916200992319F0000043
:1001F0009150FBCF98E080FF02C0C39A01C0C39822
:1002000020916200222319F000002150FBCF869537
:10021000915089F7C39A80916200882319F00000F9
:100220008150FBCF78940895CF93DF93EC018991AF
:10023000882311F0D6DFFBCFDF91CF9108950F9384
:100240001F93CF93DF93CDB7DEB727970FB6F89400
:10025000DEBF0FBECDBF8C0180E289831F82C80143
:1002600017FF04C088279927801B910BBE016E5F82
:100270007F4F04D1282F30E017FF08C08DE2E1E066
:10028000F0E0EC0FFD1FE20FF31F8083812F8095BC
:10029000F90187FD3196CF0121E030E02C0F3D1FA1
:1002A000820F931FC1DF27960FB6F894DEBF0FBEF3
:1002B000CDBFDF91CF911F910F9108950F931F93A1
:1002C000CF93DF93CDB7DEB727970FB6F894DEBF95
:1002D0000FBECDBF8C0180E289831F82C80117FF4A
:1002E00004C088279927801B910BBE016E5F7F4F4A
:1002F000C5D017FF08C0E1E0F0E0EC0FFD1FE80FEC
:10030000F11D8DE28083CE0101968EDF27960FB618
:10031000F894DEBF0FBECDBFDF91CF911F910F913B
:100320000895CF93DF9300D000D000D0CDB7DEB7D3
:100330001E82BE016F5F7F4FA1D021E030E02C0F05
:100340003D1F280F311DC9016FDF26960FB6F894A7
:10035000DEBF0FBECDBFDF91CF910895CF93DF9366
:1003600000D000D000D0CDB7DEB71E82BE016F5FD7
:100370007F4F84D0CE01019657DF26960FB6F894B2
:10038000DEBF0FBECDBFDF91CF910895CF93DF9336
:10039000CDB7DEB761970FB6F894DEBF0FBECDBF05
:1003A000198ABE016F5F7F4F90E0A2D021E030E05C
:1003B0002C0F3D1F280F311DC90136DF61960FB686
:1003C000F894DEBF0FBECDBFDF91CF910895CF93DC
:1003D000DF93CDB7DEB761970FB6F894DEBF0FBEDF
:1003E000CDBF198ABE016F5F7F4F90E081D0CE01F3
:1003F00009961ADF61960FB6F894DEBF0FBECDBF27
:10040000DF91CF910895CF93DF93CDB7DEB761979A
:100410000FB6F894DEBF0FBECDBF198ABE016F5F65
:100420007F4F66D021E030E02C0F3D1F280F311D9B
:10043000C901FADE61960FB6F894DEBF0FBECDBFDC
:10044000DF91CF910895CF93DF93CDB7DEB761975A
:100450000FB6F894DEBF0FBECDBF198ABE016F5F25
:100460007F4F46D0CE010196DFDE61960FB6F8943D
:10047000DEBF0FBECDBFDF91CF910895CF93DF9345
:10048000CDB7DEB72A970FB6F894DEBF0FBECDBF4B
:10049000AC018AE0E3E6F0E0DE01119601900D92F6
:1004A0008A95E1F7FE013196DB0120E084E061915D
:1004B000719190E04617570720F09F5F461B570B3E
:1004C000F9CF843039F4911104C0243011F090EF49
:1004D00001C0822F905D9D932F5F253041F72A96B2
:1004E0000FB6F894DEBF0FBECDBFDF91CF91089558
:1004F000FC0120E08FE040E050E8E417F50730F021
:10050000E41BF50B8F3021F4822F02C090E001C074
:1005100091E0905DDB019D93BD01569547952F5F5E
:10052000203159F70895BB9AC39A8DE690E07CDE9E
:1005300080E790E079DE8DE690E076DE8BE290E079
:10054000A7DD6FEF85E0AFDDB89AB99ABA9ABC9A89
:08055000C7DDFFCFF894FFCFD7
:1005580061050F1027E80364000A0001000D0A0076
:1005680048454C4C4F5B5343484544554C45525DB8
:02057800000081
:00000001FF
