:100000000EC028C027C026C025C024C023C022C0DF
:1000100021C020C064C01EC01DC01CC01BC0112454
:100020001FBECFE5D2E0DEBFCDBF10E0A0E6B0E05E
:10003000EEEDF1E002C005900D92A236B107D9F7BE
:1000400020E0A2E6B0E001C01D92A737B207E1F7B9
:10005000B8D0C3C0D5CF637098B3623041F063307D
:1000600041F0613011F081E005C082E003C084E01E
:1000700001C080E1892788BB089590937000809328
:100080006F008AB582608ABD89B7806189BF089593
:1000900080936100609360000895209166002F5F57
:1000A00020936600243080F430E0F901EE0FFF1F4A
:1000B000E159FF4F91838083F901E559FF4F608338
:1000C000F901E959FF4F60830895789480916000A9
:1000D00089BD93B780916100892B83BF08951F92DA
:1000E0000F920FB60F921124EF92FF920F931F936E
:1000F0002F933F934F935F936F937F938F939F9330
:10010000AF93BF93CF93DF93EF93FF938FE6E82EE8
:1001100080E0F82E07E610E0C0E0D0E0D701ED91D6
:10012000FD917D013097E9F0D8018C91811116C0C5
:10013000209751F460916200709163008091640097
:1001400090916500099503C082E690E00995FE0153
:10015000E559FF4F8081F801808303C08150D801A9
:100160008C9321960F5F1F4FC430D105B9F6809153
:10017000620090916300A0916400B09165000196C7
:10018000A11DB11D8093620090936300A093640051
:10019000B0936500FF91EF91DF91CF91BF91AF9147
:1001A0009F918F917F916F915F914F913F912F918F
:1001B0001F910F91FF90EF900F900FBE0F901F9027
:1001C00018958BE290E059DF6FEF85E061DFB89A18
:0E01D000B99ABA9ABC9A79DFFFCFF894FFCFA4
:0201DE006105B9
:00000001FF
