:100000000EC01DC01CC01BC01AC019C018C017C02C
:1000100016C015C014C013C012C011C010C01124E6
:100020001FBECFE5D2E0DEBFCDBF20E0A0E6B0E04E
:1000300001C01D92A236B207E1F779D00CC1E0CF22
:10004000BC9A089570E07695762F66277795679528
:10005000282F30E0C49A982F992319F0000091506E
:10006000FBCFC498982F992331F049E04A95F1F7D6
:1000700000C09150F8CF621B730B77FFEBCF089550
:1000800090936100809360000895CF92DF92EF9289
:10009000FF920F931F93CF93DF93182FF42EE22E2E
:1000A000C62FD0E0D695DC2FCC27D795C795C02E8C
:1000B000002E000CDD08FF2089F1CE01412F50E019
:1000C000C49A212F222319F000002150FBCFC4989D
:1000D000212F222331F039E03A95F1F700C0215069
:1000E000F8CF841B950B97FFEBCF8E2D882341F023
:1000F000E9EFF0E03197F1F700C000008150F6CF52
:10010000C416D5060CF4101BE0916000F09161005C
:10011000309711F08F2D0995FA94CDCFDF91CF91C3
:100120001F910F91FF90EF90DF90CF90089588DF9F
:1001300006E021E048E264E080EEA7DF2FE78AE1F5
:1001400096E0215080409040E1F700C0000000E0C0
:1001500020E041E061E08CE098DF2FE78AE196E063
:10016000215080409040E1F700C0000020E041E0D5
:1001700060E188E18ADF2FE78AE196E02150804044
:100180009040E1F700C0000024E142E060E188E136
:100190007CDF2FE78AE196E0215080409040E1F734
:1001A00000C0000024E143E060E188E16EDF2FE75A
:1001B0008AE196E0215080409040E1F700C00000C5
:1001C00024E040E261E080E260DF2FE78AE196E030
:1001D000215080409040E1F700C0000001E020E0A5
:1001E00048E164E080E351DF2FE78AE196E02150A7
:1001F00080409040E1F700C0000006E020E040E2CF
:1002000061E080E642DF2FE78AE196E021508040FE
:100210009040E1F700C0000000E028E048E166E01F
:1002200080E333DF2FE78AE196E021508040904061
:10023000E1F700C000000AEF21E04CE062E082E05C
:1002400024DF2FE78AE196E0215080409040E1F7DB
:0A02500000C000006DCFF894FFCF4E
:00000001FF
