:100000000EC028C027C026C025C024C023C022C0DF
:1000100021C020C067C01EC01DC01CC01BC0112451
:100020001FBECFE5D2E0DEBFCDBF10E0A0E6B0E05E
:10003000E6EDF1E002C005900D92A236B107D9F7C6
:1000400020E0A2E6B0E001C01D92A337B207E1F7BD
:1000500096D0BFC0D5CF98B381E0892788BB0895DB
:1000600098B382E0892788BB089598B384E08927F4
:1000700088BB089598B388E0892788BB08958AB51E
:1000800082608ABD89B7806189BF089580936100CD
:10009000609360000895AC01909162009430A0F4E8
:1000A000292F30E0F901EE0FFF1FE559FF4F518373
:1000B0004083F901E959FF4F6083F901ED59FF4F82
:1000C00060839F5F909362000895789480916000B0
:1000D00089BD83B7887F83BF93B780916100892BE7
:1000E00083BF08951F920F920FB60F921124EF92C3
:1000F000FF920F931F932F933F934F935F936F93B1
:100100007F938F939F93AF93BF93CF93DF93EF939F
:10011000FF930BE610E087E6E82E80E0F82EC3E6BA
:10012000D0E0D801ED91FD918D01309749F08881A3
:10013000811104C00995F701808101C08150888335
:10014000FFEFEF1AFF0A219680E00337180749F7FF
:10015000FF91EF91DF91CF91BF91AF919F918F91DF
:100160007F916F915F914F913F912F911F910F91CF
:10017000FF90EF900F900FBE0F901F9018957FDFAC
:100180006FEF85E083DF60E08BE290E084DF61E089
:1001900080E390E080DF62E085E390E07CDF63E075
:1001A0008AE390E078DFB89AB99ABA9ABB9ABC9A77
:1001B0008CDF90E1F89488B3892788BB78942FE38B
:1001C0003DE083E0215030408040E1F700C0000076
:0601D000F1CFF894FFCF0F
:0201D6007C02A9
:00000001FF
