:100000000EC028C027C026C025C024C023C022C0DF
:1000100021C020C066C01EC01DC01CC01BC0112452
:100020001FBECFE5D2E0DEBFCDBF10E0A0E6B0E05E
:10003000EAEFF1E002C005900D92A236B107D9F7C0
:1000400020E0A2E6B0E001C01D92A737B207E1F7B9
:10005000BAD0D1C0D5CF98B380E1892788BB0895A5
:1000600098B381E0892788BB089598B382E08927F7
:1000700088BB089598B384E0892788BB089590933E
:10008000700080936F008AB582608ABD89B78061F5
:1000900089BF089580936100609360000895209166
:1000A00066002F5F20936600243080F430E0F90171
:1000B000EE0FFF1FE159FF4F91838083F901E5594E
:1000C000FF4F6083F901E959FF4F608308957894E9
:1000D0008091600089BD93B780916100892B83BFB7
:1000E00008951F920F920FB60F921124CF92DF92B4
:1000F000EF92FF921F932F933F934F935F936F93D2
:100100007F938F939F93AF93BF93CF93DF93EF939F
:10011000FF938FE6C82E80E0D82E9BE6E92E90E074
:10012000F92EC7E6D0E010E0D601ED91FD916D010A
:100130003097B9F08881811112C011110AC0609105
:100140006200709163008091640090916500099550
:1001500003C082E690E00995F701808101C08150DB
:1001600088831F5FFFEFEF1AFF0A21961430E1F634
:100170008091620090916300A0916400B09165004D
:100180000196A11DB11D8093620090936300A0931E
:100190006400B0936500FF91EF91DF91CF91BF9123
:1001A000AF919F918F917F916F915F914F913F910F
:1001B0002F911F91FF90EF90DF90CF900F900FBE87
:1001C0000F901F9018958BE290E059DF61E080E37B
:1001D00090E065DF62E085E390E061DF63E08AE361
:1001E00090E05DDF6FEF85E055DFB89AB99ABA9A73
:0A01F000BC9A6DDFFFCFF894FFCF3B
:0201FA0061059D
:00000001FF
