:100000000EC01DC01CC01BC01AC019C018C017C02C
:1000100016C015C014C013C012C011C010C01124E6
:100020001FBECFE5D2E0DEBFCDBF20E0A0E6B0E04E
:1000300001C01D92A236B207E1F79FD0BFC0E0CF4A
:10004000CF9321D035E0969587953A95E1F7892BA6
:10005000C1F3C0E018D025E0969587952A95E1F781
:10006000C82B8111F7CF8C2FCF91089598B3987F2B
:1000700098BB98B38770982B98BB089517B887EAF8
:1000800086B913B8089584B195B10895BC9A0895BE
:1000900070E07695762F662777956795282F30E064
:1000A000C49A982F992319F000009150FBCFC4985F
:1000B000982F992331F049E04A95F1F700C091500B
:1000C000F8CF621B730B77FFEBCF0895909361001D
:1000D000809360000895CF92DF92EF92FF920F938A
:1000E0001F93CF93DF93182FF42EE22EC62FD0E06C
:1000F000D695DC2FCC27D795C795C02E002E000CA7
:10010000DD08FF2089F1CE01412F50E0C49A212F54
:10011000222319F000002150FBCFC498212F222365
:1001200031F039E03A95F1F700C02150F8CF841B47
:10013000950B97FFEBCF8E2D882341F0E9EFF0E090
:100140003197F1F700C000008150F6CFC416D506F4
:100150000CF4101BE0916000F0916100309711F0F9
:100160008F2D0995FA94CDCFDF91CF911F910F91EB
:10017000FF90EF90DF90CF90089587B3876187BBA2
:1001800085DF7CDF87B1807F836087B9369A87EE11
:1001900093E00197F1F700C0000080E067DF50DFD7
:1001A000C82F64DF8C2F880F880F880F64E1885D6B
:1001B0006FDF87EA91E60197F1F7EDCFF894FFCF73
:00000001FF
