:100000002EC248C247C246C245C244C243C242C2CF
:1000100041C240C273C23EC23DC23CC23BC2EF03BA
:10002000BE039F03EF02BE029F03EF02BE02EF0377
:10003000BE039F03EF02BE029F03EF02BE02EF0367
:10004000D5038E04D502B3028E04D502B302EF03AA
:10005000D5038E04D502B3028E04D502B302FD048B
:10006000D5039F03D502B3029F03D502B302FD045B
:10007000D5039F03D502B3029F03D502B302EF035A
:10008000BE039F03EF02BE029F03EF02BE02EF0317
:10009000BE039F03EF02BE029F03EF02BE02EF0307
:1000A000BE038E04BE028E038E04BE028E03EF03D7
:1000B000BE038E04BE028E038E04BE028E03EF03C7
:1000C000D503A9038E04D502A9038E04D502EF033C
:1000D000D503A9038E04D502A9038E04D502FD041D
:1000E000D5039F03D5029F029F03D5029F02FD0403
:1000F000D5039F03D5029F029F03D5029F02FD04F3
:10010000EF03BE039F03EF02BE039F03EF02FD0454
:10011000EF03BE039F03EF02BE039F03EF028E05B2
:10012000EF03BE039F03EF02BE039F03EF028E05A2
:10013000EF03BE039F03EF02BE039F03EF02D5044C
:100140008E05D503A903EF02D503A903EF02D50459
:100150008E05D503A903EF02D503A903EF029F047F
:10016000FD04D5039F03FD03D5039F03FD039F04F7
:10017000FD04D5039F03FD03D5039F03FD039F04E7
:100180008605BE039F03E102BE039F03E1029F04B5
:100190008605BE039F03E102BE039F03E102B30491
:1001A0008E05D5038E04D502D5038E04D502B30483
:1001B0008E05D5038E04D502D5038E04D502B30473
:1001C0009604D503B303FD03D503B303FD03B304C2
:1001D0009604D503B303FD03D503B303FD03BE04A7
:1001E0009F04EF039F03EF02EF039F03EF02BE04A0
:1001F0009F04EF039F03EF02EF039F03EF02BE0490
:10020000B3048E05EF03B3038E05EF03B303BE04FF
:10021000B3048E05EF03B3038E05EF03B303D504D8
:10022000B3048E05EF03B3038E05EF03B303D504C8
:10023000B3048E05EF03B3038E05EF03B3039F05ED
:10024000D5049F04FD04B3039F04FD04B3039F057D
:10025000D5049F04FD04B3039F04FD04B303EF041E
:10026000BE049F04EF03BE039F04EF03BE03EF042D
:10027000BE049F04EF03BE039F04EF03BE03EF041D
:100280009F048605EF03BE038605EF03BE03EF045C
:100290009F048605EF03BE038605EF03BE03B30587
:1002A000B3048E05EF03BE038E05EF03BE03B30553
:1002B000B3048E05EF03BE038E05EF03BE03A9054D
:1002C000EF048E05EF03C9038E05EF03C903A905EB
:1002D000EF048E05EF03C9038E05EF03C9039605EE
:1002E000B304FD04EF03D503FD04EF03D503960526
:1002F000B304FD04EF03D503FD04EF03D5039F050D
:10030000B3049F04FD04D5039F04FD04D5039F059A
:10031000B3049F04FD04D5039F04FD04D5039F058A
:10032000BE049F04EF03BE039F04EF03BE039F05BB
:10033000BE049F04EF03BE039F04EF03BE039F05AB
:10034000D5049F04EF03B3039F04EF03B3039F059A
:10035000D5049F04EF03B3039F04EF03B3039F058A
:10036000D5049F04FD04B3039F04FD04B3039F055C
:10037000D5049F04FD04B3039F04FD04B3039F054C
:10038000C9048E05EF03A9038E05EF03A9039F059A
:10039000C9048E05EF03A9038E05EF03A9039F058A
:1003A000BE049F04EF039F039F04EF039F039F0579
:1003B000BE049F04EF039F039F04EF039F039F0569
:1003C000B3049F04EF03B3039F04EF03B3039F053C
:1003D000B3049F04EF03B3039F04EF03B3039F052C
:1003E000B3049F04FD04B3039F04FD04B3039F05FE
:1003F000B3049F04FD04B3039F04FD04B303EF059E
:10040000EF049F048605BE039F048605BE03EF0527
:10041000EF049F048605BE039F048605BE03EF0517
:10042000EF04B3048E05EF03B303EF038E05EF0370
:100430008E05B3048E05B304D504B304D504EF05CB
:10044000FD059F03FD03D502B302D502FD03D502CE
:10045000FD039F03FD03D503B303BE03D50311249E
:100460001FBECFE5D2E0DEBFCDBF10E0A0E6B0E01A
:10047000ECE8F7E002C005900D92A436B107D9F779
:1004800020E0A4E6B0E001C01D92AC37B207E1F76E
:100490006AD17AC1B5CD8AB582608ABD89B78061DB
:1004A00089BF089580936100609360000895AC0156
:1004B000909164009430A0F4292F30E0F901EE0F00
:1004C000FF1FE359FF4F51834083F901E759FF4F65
:1004D0006083F901EB59FF4F60839F5F9093640045
:1004E000089578948091600089BD83B7887F83BF29
:1004F00093B780916100892B83BF08951F920F925B
:100500000FB60F921124EF92FF920F931F932F9328
:100510003F934F935F936F937F938F939F93AF938B
:10052000BF93CF93DF93EF93FF930DE610E089E63F
:10053000E82E80E0F82EC5E6D0E0D801ED91FD91DF
:100540008D01309749F08881811104C00995F70128
:10055000808101C081508883FFEFEF1AFF0A219646
:1005600080E00537180749F7FF91EF91DF91CF91B0
:10057000BF91AF919F918F917F916F915F914F91BB
:100580003F912F911F910F91FF90EF900F900FBE11
:100590000F901F901895BC9A8CB580628CBD8CB55D
:1005A0008F7E8CBD80B78F7C80BF0895682F8DE0D3
:1005B00093E07DCFAC01577020B732E0350F207F3C
:1005C000232B20BF4DBD992740916200477028E042
:1005D00030E0241B310902C0959587952A95E2F7F2
:1005E0008BBD8CB580648CBD08958CB58F7B8CBD24
:1005F00008959695969596959F7009F494E0892FA5
:10060000869521E030E001C0220F8A95EAF7822F1B
:1006100090FF02C08695820F0895CF93DF9380915B
:100620007600909177000097A9F1C0917500C111F3
:100630002BC040917A0050917B002091780030913E
:1006400079004217530721F410927B0010927A0030
:10065000E0917A00F0917B00EE0FFF1FE80FF91F89
:10066000C591D491CE01C5DF880F880F80937500A6
:10067000CE01A0DF80917A0090917B00019690934B
:100680007B0080937A0006C0C13009F4AEDFC15010
:10069000C0937500DF91CF910895AF92BF92DF9222
:1006A000EF92FF920F931F93CF93DF937C018B0107
:1006B00040936200C0E0D0E0C017D10704F5FE010E
:1006C000EE0FFF1FEE0DFF1DA590B490C50191DF49
:1006D000D82EC5016FDF8D2D882341F0E3EDF0E3C7
:1006E0003197F1F700C000008150F6CF7EDF81EE38
:1006F00094E00197F1F700C000002196DDCFDF9173
:10070000CF911F910F91FF90EF90DF90BF90AF902E
:100710006CCF4093620070937900609378003093BF
:100720007B0020937A009093770080937600089561
:1007300040936200709379006093780010927B0080
:1007400010927A00909377008093760008954DDFA1
:1007500010927700109276000895F9DF80917A0068
:1007600090917B00089517DF47E060E272E08EE130
:1007700090E093DF2FE38DE093E0215080409040A4
:0C078000E1F700C00000F0CFF894FFCFBC
:04078C007C020700E4
:00000001FF
