:100000002EC248C247C246C245C244C243C242C2CF
:1000100041C240C272C23EC23DC23CC23BC2EF03BB
:10002000BE039F03EF02BE029F03EF02BE02EF0377
:10003000BE039F03EF02BE029F03EF02BE02EF0367
:10004000D5038E04D502B3028E04D502B302EF03AA
:10005000D5038E04D502B3028E04D502B302FD048B
:10006000D5039F03D502B3029F03D502B302FD045B
:10007000D5039F03D502B3029F03D502B302EF035A
:10008000BE039F03EF02BE029F03EF02BE02EF0317
:10009000BE039F03EF02BE029F03EF02BE02EF0307
:1000A000BE038E04BE028E038E04BE028E03EF03D7
:1000B000BE038E04BE028E038E04BE028E03EF03C7
:1000C000D503A9038E04D502A9038E04D502EF033C
:1000D000D503A9038E04D502A9038E04D502FD041D
:1000E000D5039F03D5029F029F03D5029F02FD0403
:1000F000D5039F03D5029F029F03D5029F02FD04F3
:10010000EF03BE039F03EF02BE039F03EF02FD0454
:10011000EF03BE039F03EF02BE039F03EF028E05B2
:10012000EF03BE039F03EF02BE039F03EF028E05A2
:10013000EF03BE039F03EF02BE039F03EF02D5044C
:100140008E05D503A903EF02D503A903EF02D50459
:100150008E05D503A903EF02D503A903EF029F047F
:10016000FD04D5039F03FD03D5039F03FD039F04F7
:10017000FD04D5039F03FD03D5039F03FD039F04E7
:100180008605BE039F03E102BE039F03E1029F04B5
:100190008605BE039F03E102BE039F03E102B30491
:1001A0008E05D5038E04D502D5038E04D502B30483
:1001B0008E05D5038E04D502D5038E04D502B30473
:1001C0009604D503B303FD03D503B303FD03B304C2
:1001D0009604D503B303FD03D503B303FD03BE04A7
:1001E0009F04EF039F03EF02EF039F03EF02BE04A0
:1001F0009F04EF039F03EF02EF039F03EF02BE0490
:10020000B3048E05EF03B3038E05EF03B303BE04FF
:10021000B3048E05EF03B3038E05EF03B303D504D8
:10022000B3048E05EF03B3038E05EF03B303D504C8
:10023000B3048E05EF03B3038E05EF03B3039F05ED
:10024000D5049F04FD04B3039F04FD04B3039F057D
:10025000D5049F04FD04B3039F04FD04B303EF041E
:10026000BE049F04EF03BE039F04EF03BE03EF042D
:10027000BE049F04EF03BE039F04EF03BE03EF041D
:100280009F048605EF03BE038605EF03BE03EF045C
:100290009F048605EF03BE038605EF03BE03B30587
:1002A000B3048E05EF03BE038E05EF03BE03B30553
:1002B000B3048E05EF03BE038E05EF03BE03A9054D
:1002C000EF048E05EF03C9038E05EF03C903A905EB
:1002D000EF048E05EF03C9038E05EF03C9039605EE
:1002E000B304FD04EF03D503FD04EF03D503960526
:1002F000B304FD04EF03D503FD04EF03D5039F050D
:10030000B3049F04FD04D5039F04FD04D5039F059A
:10031000B3049F04FD04D5039F04FD04D5039F058A
:10032000BE049F04EF03BE039F04EF03BE039F05BB
:10033000BE049F04EF03BE039F04EF03BE039F05AB
:10034000D5049F04EF03B3039F04EF03B3039F059A
:10035000D5049F04EF03B3039F04EF03B3039F058A
:10036000D5049F04FD04B3039F04FD04B3039F055C
:10037000D5049F04FD04B3039F04FD04B3039F054C
:10038000C9048E05EF03A9038E05EF03A9039F059A
:10039000C9048E05EF03A9038E05EF03A9039F058A
:1003A000BE049F04EF039F039F04EF039F039F0579
:1003B000BE049F04EF039F039F04EF039F039F0569
:1003C000B3049F04EF03B3039F04EF03B3039F053C
:1003D000B3049F04EF03B3039F04EF03B3039F052C
:1003E000B3049F04FD04B3039F04FD04B3039F05FE
:1003F000B3049F04FD04B3039F04FD04B303EF059E
:10040000EF049F048605BE039F048605BE03EF0527
:10041000EF049F048605BE039F048605BE03EF0517
:10042000EF04B3048E05EF03B303EF038E05EF0370
:100430008E05B3048E05B304D504B304D504EF05CB
:10044000FD059F03FD03D502B302D502FD03D502CE
:10045000FD039F03FD03D503B303BE03D50311249E
:100460001FBECFE5D2E0DEBFCDBF10E0A0E6B0E01A
:10047000E6EAF7E002C005900D92A236B107D9F77F
:1004800020E0A2E6B0E001C01D92AF37B207E1F76D
:1004900077D187C1B5CD9093700080936F008AB5F6
:1004A00082608ABD89B7806189BF089580936100A9
:1004B000609360000895209166002F5F209366008E
:1004C000243080F430E0F901EE0FFF1FE159FF4FB7
:1004D00091838083F901E559FF4F6083F901E95960
:1004E000FF4F6083089578948091600089BD93B731
:1004F00080916100892B83BF08951F920F920FB6E0
:100500000F921124EF92FF920F931F932F933F931B
:100510004F935F936F937F938F939F93AF93BF930B
:10052000CF93DF93EF93FF938FE6E82E80E0F82ED2
:1005300007E610E0C0E0D0E0D701ED91FD917D012C
:100540003097E9F0D8018C91811116C0209751F4B1
:1005500060916200709163008091640090916500E9
:10056000099503C082E690E00995FE01E559FF4F29
:100570008081F801808303C08150D8018C9321963B
:100580000F5F1F4FC430D105B9F680916200909182
:100590006300A0916400B09165000196A11DB11D9A
:1005A0008093620090936300A0936400B093650011
:1005B000FF91EF91DF91CF91BF91AF919F918F917B
:1005C0007F916F915F914F913F912F911F910F916B
:1005D000FF90EF900F900FBE0F901F901895BC9A50
:1005E0008CB580638CBD80B7806380BF089561E067
:1005F0008EE293E060CFAC01577020B732E0350F48
:10060000207F232B20BF4DBD992740917C00477050
:1006100028E030E0241B310902C0959587952A9582
:10062000E2F78BBD8CB580648CBD08958CB58F7B53
:100630008CBD08959695969596959F7009F496E0D1
:10064000892F869521E030E001C0220F8A95EAF7D4
:10065000822F90FF02C08695820F0895CF93DF937B
:1006600080917800909179000097A1F1C091770076
:10067000C1112AC040917D0050917E0020917A00E6
:1006800030917B004217530721F410927E001092A4
:100690007D00E0917D00F0917E00EE0FFF1FE80FDE
:1006A000F91FC591D491CE01C5DF880F80937700E3
:1006B000CE01A1DF80917D0090917E000196909304
:1006C0007E0080937D0006C0C13009F4AFDFC150C9
:1006D000C0937700DF91CF910895AF92BF92CF92F0
:1006E000DF92EF92FF920F931F93CF937C018B01C8
:1006F00040937C00C12CD12CC016D10614F5F60114
:10070000EE0FFF1FEE0DFF1DA590B490C50192DF07
:10071000C82FC50170DF9C2F992341F0E3EDF0E372
:100720003197F1F700C000009150F6CF7FDF81EEE6
:1007300094E00197F1F700C000009FEFC91AD90AB1
:10074000DBCFCF911F910F91FF90EF90DF90CF9073
:10075000BF90AF906BCF40937C0070937B00609311
:100760007A0010927E0010927D0090937900809321
:10077000780008955BDF1092790010927800089558
:100780002EDF47E060E272E08EE190E0A6DF2FE32B
:100790008DE093E0215080409040E1F700C00000E0
:0607A000F0CFF894FFCF3A
:0207A6006105EB
:00000001FF
