:100000002EC248C247C246C245C244C243C242C2CF
:1000100041C240C272C23EC23DC23CC23BC2EF03BB
:10002000BE039F03EF02BE029F03EF02BE02EF0377
:10003000BE039F03EF02BE029F03EF02BE02EF0367
:10004000D5038E04D502B3028E04D502B302EF03AA
:10005000D5038E04D502B3028E04D502B302FD048B
:10006000D5039F03D502B3029F03D502B302FD045B
:10007000D5039F03D502B3029F03D502B302EF035A
:10008000BE039F03EF02BE029F03EF02BE02EF0317
:10009000BE039F03EF02BE029F03EF02BE02EF0307
:1000A000BE038E04BE028E038E04BE028E03EF03D7
:1000B000BE038E04BE028E038E04BE028E03EF03C7
:1000C000D503A9038E04D502A9038E04D502EF033C
:1000D000D503A9038E04D502A9038E04D502FD041D
:1000E000D5039F03D5029F029F03D5029F02FD0403
:1000F000D5039F03D5029F029F03D5029F02FD04F3
:10010000EF03BE039F03EF02BE039F03EF02FD0454
:10011000EF03BE039F03EF02BE039F03EF028E05B2
:10012000EF03BE039F03EF02BE039F03EF028E05A2
:10013000EF03BE039F03EF02BE039F03EF02D5044C
:100140008E05D503A903EF02D503A903EF02D50459
:100150008E05D503A903EF02D503A903EF029F047F
:10016000FD04D5039F03FD03D5039F03FD039F04F7
:10017000FD04D5039F03FD03D5039F03FD039F04E7
:100180008605BE039F03E102BE039F03E1029F04B5
:100190008605BE039F03E102BE039F03E102B30491
:1001A0008E05D5038E04D502D5038E04D502B30483
:1001B0008E05D5038E04D502D5038E04D502B30473
:1001C0009604D503B303FD03D503B303FD03B304C2
:1001D0009604D503B303FD03D503B303FD03BE04A7
:1001E0009F04EF039F03EF02EF039F03EF02BE04A0
:1001F0009F04EF039F03EF02EF039F03EF02BE0490
:10020000B3048E05EF03B3038E05EF03B303BE04FF
:10021000B3048E05EF03B3038E05EF03B303D504D8
:10022000B3048E05EF03B3038E05EF03B303D504C8
:10023000B3048E05EF03B3038E05EF03B3039F05ED
:10024000D5049F04FD04B3039F04FD04B3039F057D
:10025000D5049F04FD04B3039F04FD04B303EF041E
:10026000BE049F04EF03BE039F04EF03BE03EF042D
:10027000BE049F04EF03BE039F04EF03BE03EF041D
:100280009F048605EF03BE038605EF03BE03EF045C
:100290009F048605EF03BE038605EF03BE03B30587
:1002A000B3048E05EF03BE038E05EF03BE03B30553
:1002B000B3048E05EF03BE038E05EF03BE03A9054D
:1002C000EF048E05EF03C9038E05EF03C903A905EB
:1002D000EF048E05EF03C9038E05EF03C9039605EE
:1002E000B304FD04EF03D503FD04EF03D503960526
:1002F000B304FD04EF03D503FD04EF03D5039F050D
:10030000B3049F04FD04D5039F04FD04D5039F059A
:10031000B3049F04FD04D5039F04FD04D5039F058A
:10032000BE049F04EF03BE039F04EF03BE039F05BB
:10033000BE049F04EF03BE039F04EF03BE039F05AB
:10034000D5049F04EF03B3039F04EF03B3039F059A
:10035000D5049F04EF03B3039F04EF03B3039F058A
:10036000D5049F04FD04B3039F04FD04B3039F055C
:10037000D5049F04FD04B3039F04FD04B3039F054C
:10038000C9048E05EF03A9038E05EF03A9039F059A
:10039000C9048E05EF03A9038E05EF03A9039F058A
:1003A000BE049F04EF039F039F04EF039F039F0579
:1003B000BE049F04EF039F039F04EF039F039F0569
:1003C000B3049F04EF03B3039F04EF03B3039F053C
:1003D000B3049F04EF03B3039F04EF03B3039F052C
:1003E000B3049F04FD04B3039F04FD04B3039F05FE
:1003F000B3049F04FD04B3039F04FD04B303EF059E
:10040000EF049F048605BE039F048605BE03EF0527
:10041000EF049F048605BE039F048605BE03EF0517
:10042000EF04B3048E05EF03B303EF038E05EF0370
:100430008E05B3048E05B304D504B304D504EF05CB
:10044000FD059F03FD03D502B302D502FD03D502CE
:10045000FD039F03FD03D503B303BE03D50311249E
:100460001FBECFE5D2E0DEBFCDBF10E0A0E6B0E01A
:10047000E2EDF7E002C005900D92A436B107D9F77E
:1004800020E0A4E6B0E001C01D92A038B207E1F779
:100490008DD19DC1B5CD90937200809371008AB5C6
:1004A00082608ABD89B7806189BF089580936100A9
:1004B000609360000895209168002F5F209368008A
:1004C000243080F430E0F901EE0FFF1FEF58FF4FAA
:1004D00091838083F901E359FF4F6083F901E75964
:1004E000FF4F6083089578948091600089BD93B731
:1004F00080916100892B83BF08951F920F920FB6E0
:100500000F921124CF92DF92EF92FF921F932F93BD
:100510003F934F935F936F937F938F939F93AF938B
:10052000BF93CF93DF93EF93FF9381E7C82E80E0D3
:10053000D82E9DE6E92E90E0F92EC9E6D0E010E035
:10054000D601ED91FD916D013097B9F0888181114F
:1005500012C011110AC06091640070916500809111
:10056000660090916700099503C084E690E00995C4
:10057000F701808101C0815088831F5FFFEFEF1A70
:10058000FF0A21961430E1F6809164009091650095
:10059000A0916600B09167000196A11DB11D8093E6
:1005A000640090936500A0936600B0936700FF918C
:1005B000EF91DF91CF91BF91AF919F918F917F91FB
:1005C0006F915F914F913F912F911F91FF90EF900D
:1005D000DF90CF900F900FBE0F901F901895BC9A90
:1005E0008CB580628CBD8CB58F7E8CBD80B78F7CC6
:1005F00080BF089561E081E393E05DCFAC01577067
:1006000020B732E0350F207F232B20BF4DBD992727
:1006100040916200477028E030E0241B310902C09D
:10062000959587952A95E2F78BBD8CB580648CBD36
:1006300008958CB58F7B8CBD08959695969596956B
:100640009F7009F496E0892F869521E030E001C083
:10065000220F8A95EAF7822F90FF02C08695820FBB
:100660000895CF93DF9380917A0090917B0000975B
:10067000A1F1C0917900C1112AC040917E00509132
:100680007F0020917C0030917D004217530721F4B8
:1006900010927F0010927E00E0917E00F0917F002A
:1006A000EE0FFF1FE80FF91FC591D491CE01C5DFF2
:1006B000880F80937900CE01A1DF80917E00909118
:1006C0007F00019690937F0080937E0006C0C1302A
:1006D00009F4AFDFC150C0937900DF91CF91089545
:1006E000AF92BF92DF92EF92FF920F931F93CF933F
:1006F000DF937C018B0140936200C0E0D0E0C01723
:10070000D10704F5FE01EE0FFF1FEE0DFF1DA590B2
:10071000B490C50192DFD82EC50170DF8D2D8823DE
:1007200041F0E3EDF0E33197F1F700C000008150B4
:10073000F6CF7FDF81EE94E00197F1F700C0000073
:100740002196DDCFDF91CF911F910F91FF90EF9018
:10075000DF90BF90AF906DCF4093620070937D00AB
:1007600060937C0030937F0020937E0090937B0009
:1007700080937A0008954093620070937D006093A7
:100780007C0010927F0010927E0090937B008093FB
:100790007A0008954EDF10927B0010927A0008953F
:1007A000F9DF80917E0090917F00089518DF47E087
:1007B00060E272E08EE190E093DF2FE38DE093E062
:1007C000215080409040E1F700C00000F0CFF89445
:0207D000FFCF59
:0407D20061050700B6
:00000001FF
