:100000004CC066C065C064C063C062C061C060C0EF
:100010005FC05EC090C05CC05BC05AC059C0BE33F8
:10002000BE33B3339F339F33B333BE33D533EF3354
:10003000EF33D533BE33BE3BD523D543BE33BE33BA
:10004000B3339F339F33B333BE33D533EF33EF3303
:10005000D533BE33D53BEF23EF43D533D533BE3352
:10006000EF33D533BE23B323BE33EF33D533BE23B3
:10007000B323BE33D533EF33D5339F44BE33BE33C2
:10008000B3339F339F33B333BE33D533EF33EF33C3
:10009000D533BE33D53BEF23EF4311241FBECFE54D
:1000A000D2E0DEBFCDBF10E0A0E6B0E0E2EEF3E0CC
:1000B00002C005900D92A236B107D9F720E0A2E662
:1000C000B0E001C01D92AF37B207E1F777D187C129
:1000D00097CF9093700080936F008AB582608ABD3D
:1000E00089B7806189BF0895809361006093600043
:1000F0000895209166002F5F20936600243080F4DD
:1001000030E0F901EE0FFF1FE159FF4F918380832B
:10011000F901E559FF4F6083F901E959FF4F608309
:10012000089578948091600089BD93B780916100B3
:10013000892B83BF08951F920F920FB60F9211243F
:10014000EF92FF920F931F932F933F934F935F93E1
:100150006F937F938F939F93AF93BF93CF93DF93CF
:10016000EF93FF938FE6E82E80E0F82E07E610E08D
:10017000C0E0D0E0D701ED91FD917D013097E9F02D
:10018000D8018C91811116C0209751F460916200C2
:10019000709163008091640090916500099503C09F
:1001A00082E690E00995FE01E559FF4F8081F80154
:1001B000808303C08150D8018C9321960F5F1F4F1D
:1001C000C430D105B9F68091620090916300A0918E
:1001D0006400B09165000196A11DB11D809362007D
:1001E00090936300A0936400B0936500FF91EF913A
:1001F000DF91CF91BF91AF919F918F917F916F913F
:100200005F914F913F912F911F910F91FF90EF9030
:100210000F900FBE0F901F901895BC9A8CB58063FD
:100220008CBD80B7806380BF089561E08CE491E06D
:1002300060CFAC01577020B732E0350F207F232B01
:1002400020BF4DBD992740917C00477028E030E0E9
:10025000241B310902C0959587952A95E2F78BBD3D
:100260008CB580648CBD08958CB58F7B8CBD089552
:100270009695969596959F7009F496E0892F8695A8
:1002800021E030E001C0220F8A95EAF7822F90FF2B
:1002900002C08695820F0895CF93DF9380917800F6
:1002A000909179000097A1F1C0917700C1112AC007
:1002B00040917D0050917E0020917A0030917B002A
:1002C0004217530721F410927E0010927D00E091B6
:1002D0007D00F0917E00EE0FFF1FE80FF91FC59122
:1002E000D491CE01C5DF880F80937700CE01A1DFC6
:1002F00080917D0090917E00019690937E00809386
:100300007D0006C0C13009F4AFDFC150C093770053
:10031000DF91CF910895AF92BF92CF92DF92EF928B
:10032000FF920F931F93CF937C018B0140937C002E
:10033000C12CD12CC016D10614F5F601EE0FFF1F0B
:10034000EE0DFF1DA590B490C50192DFC82FC50129
:1003500070DF9C2F992341F0E3EDF0E33197F1F743
:1003600000C000009150F6CF7FDF81EE94E001974E
:10037000F1F700C000009FEFC91AD90ADBCFCF9177
:100380001F910F91FF90EF90DF90CF90BF90AF90B3
:100390006BCF40937C0070937B0060937A00109247
:1003A0007E0010927D0090937900809378000895EC
:1003B0005BDF1092790010927800089580E090E061
:1003C00088DE69E085E090DEACDE27DF2EDF47E0E7
:1003D0006EE370E08EE190E0DCDFA3DEFFCFF89407
:0203E000FFCF4D
:0203E2006105B3
:00000001FF
