:100000004CC066C065C064C063C062C061C060C0EF
:100010005FC05EC090C05CC05BC05AC059C0BE33F8
:10002000BE33B3339F339F33B333BE33D533EF3354
:10003000EF33D533BE33BE3BD523D543BE33BE33BA
:10004000B3339F339F33B333BE33D533EF33EF3303
:10005000D533BE33D53BEF23EF43D533D533BE3352
:10006000EF33D533BE23B323BE33EF33D533BE23B3
:10007000B323BE33D533EF33D5339F44BE33BE33C2
:10008000B3339F339F33B333BE33D533EF33EF33C3
:10009000D533BE33D53BEF23EF4311241FBECFE54D
:1000A000D2E0DEBFCDBF10E0A0E6B0E0EEE0F4E0CD
:1000B00002C005900D92A436B107D9F720E0A4E65E
:1000C000B0E001C01D92A038B207E1F78DD19DC10B
:1000D00097CF90937200809371008AB582608ABD39
:1000E00089B7806189BF0895809361006093600043
:1000F0000895209168002F5F20936800243080F4D9
:1001000030E0F901EE0FFF1FEF58FF4F918380831E
:10011000F901E359FF4F6083F901E759FF4F60830D
:10012000089578948091600089BD93B780916100B3
:10013000892B83BF08951F920F920FB60F9211243F
:10014000CF92DF92EF92FF921F932F933F934F93A3
:100150005F936F937F938F939F93AF93BF93CF934F
:10016000DF93EF93FF9381E7C82E80E0D82E9DE6C2
:10017000E92E90E0F92EC9E6D0E010E0D601ED912D
:10018000FD916D013097B9F08881811112C0111174
:100190000AC0609164007091650080916600909142
:1001A0006700099503C084E690E00995F701808116
:1001B00001C0815088831F5FFFEFEF1AFF0A21966D
:1001C0001430E1F68091640090916500A091660082
:1001D000B09167000196A11DB11D809364009093BA
:1001E0006500A0936600B0936700FF91EF91DF91E7
:1001F000CF91BF91AF919F918F917F916F915F91BF
:100200004F913F912F911F91FF90EF90DF90CF90F2
:100210000F900FBE0F901F901895BC9A8CB58062FE
:100220008CBD8CB58F7E8CBD80B78F7C80BF0895D0
:1002300061E08FE491E05DCFAC01577020B732E010
:10024000350F207F232B20BF4DBD992740916200A1
:10025000477028E030E0241B310902C0959587954E
:100260002A95E2F78BBD8CB580648CBD08958CB562
:100270008F7B8CBD08959695969596959F7009F401
:1002800096E0892F869521E030E001C0220F8A9503
:10029000EAF7822F90FF02C08695820F0895CF93D0
:1002A000DF9380917A0090917B000097A1F1C0913B
:1002B0007900C1112AC040917E0050917F002091A9
:1002C0007C0030917D004217530721F410927F008B
:1002D00010927E00E0917E00F0917F00EE0FFF1FF4
:1002E000E80FF91FC591D491CE01C5DF880F809327
:1002F0007900CE01A1DF80917E0090917F00019670
:1003000090937F0080937E0006C0C13009F4AFDF78
:10031000C150C0937900DF91CF910895AF92BF9201
:10032000DF92EF92FF920F931F93CF93DF937C01A5
:100330008B0140936200C0E0D0E0C017D10704F504
:10034000FE01EE0FFF1FEE0DFF1DA590B490C5013D
:1003500092DFD82EC50170DF8D2D882341F0E3EDAB
:10036000F0E33197F1F700C000008150F6CF7FDF56
:1003700081EE94E00197F1F700C000002196DDCFF7
:10038000DF91CF911F910F91FF90EF90DF90BF9081
:10039000AF906DCF4093620070937D0060937C00BE
:1003A00030937F0020937E0090937B0080937A00AF
:1003B00008954093620070937D0060937C001092DA
:1003C0007F0010927E0090937B0080937A000895C6
:1003D0004EDF10927B0010927A000895F9DF809131
:1003E0007E0090917F00089580E090E072DE69E0E9
:1003F00085E07ADE96DE11DF1BDF47E06EE370E01A
:0E0400008EE190E0D6DF8DDEFFCFF894FFCFC7
:04040E00610507007D
:00000001FF
