:100000004CC066C065C064C063C062C061C060C0EF
:100010005FC05EC091C05CC05BC05AC059C0BE33F7
:10002000BE33B3339F339F33B333BE33D533EF3354
:10003000EF33D533BE33BE3BD523D543BE33BE33BA
:10004000B3339F339F33B333BE33D533EF33EF3303
:10005000D533BE33D53BEF23EF43D533D533BE3352
:10006000EF33D533BE23B323BE33EF33D533BE23B3
:10007000B323BE33D533EF33D5339F44BE33BE33C2
:10008000B3339F339F33B333BE33D533EF33EF33C3
:10009000D533BE33D53BEF23EF4311241FBECFE54D
:1000A000D2E0DEBFCDBF10E0A0E6B0E0E0ECF3E0D0
:1000B00002C005900D92A436B107D9F720E0A4E65E
:1000C000B0E001C01D92AC37B207E1F76AD176C14A
:1000D00097CF8AB582608ABD89B7806189BF08954C
:1000E00080936100609360000895AC01909164007A
:1000F0009430A0F4292F30E0F901EE0FFF1FE359EF
:10010000FF4F51834083F901E759FF4F6083F901A5
:10011000EB59FF4F60839F5F90936400089578943C
:100120008091600089BD83B7887F83BF93B780913A
:100130006100892B83BF08951F920F920FB60F9213
:100140001124EF92FF920F931F932F933F934F939E
:100150005F936F937F938F939F93AF93BF93CF934F
:10016000DF93EF93FF930DE610E089E6E82E80E041
:10017000F82EC5E6D0E0D801ED91FD918D013097C4
:1001800049F08881811104C00995F701808101C07F
:1001900081508883FFEFEF1AFF0A219680E0053730
:1001A000180749F7FF91EF91DF91CF91BF91AF9180
:1001B0009F918F917F916F915F914F913F912F917F
:1001C0001F910F91FF90EF900F900FBE0F901F9017
:1001D0001895BC9A8CB580628CBD8CB58F7E8CBD19
:1001E00080B78F7C80BF0895682F8BE291E07DCF30
:1001F000AC01577020B732E0350F207F232B20BF92
:100200004DBD992740916200477028E030E0241BE3
:10021000310902C0959587952A95E2F78BBD8CB57B
:1002200080648CBD08958CB58F7B8CBD08959695A8
:10023000969596959F7009F494E0892F869521E014
:1002400030E001C0220F8A95EAF7822F90FF02C0AA
:100250008695820F0895CF93DF93809176009091D9
:1002600077000097A9F1C0917500C1112BC0409192
:100270007A0050917B0020917800309179004217EC
:10028000530721F410927B0010927A00E0917A00DB
:10029000F0917B00EE0FFF1FE80FF91FC591D4917D
:1002A000CE01C5DF880F880F80937500CE01A0DFD7
:1002B00080917A0090917B00019690937B008093CF
:1002C0007A0006C0C13009F4AEDFC150C09375009A
:1002D000DF91CF910895AF92BF92DF92EF92FF929C
:1002E0000F931F93CF93DF937C018B0140936200A8
:1002F000C0E0D0E0C017D10704F5FE01EE0FFF1FEC
:10030000EE0DFF1DA590B490C50191DFD82EC5015B
:100310006FDF8D2D882341F0E3EDF0E33197F1F7A6
:1003200000C000008150F6CF7EDF81EE94E001979F
:10033000F1F700C000002196DDCFDF91CF911F9132
:100340000F91FF90EF90DF90BF90AF906CCF4093F4
:100350006200709379006093780030937B00209363
:100360007A0090937700809376000895409362001E
:10037000709379006093780010927B0010927A005D
:10038000909377008093760008954DDF1092770068
:10039000109276000895F9DF80917A0090917B00A9
:1003A000089597DEBCDE15DF8AE01EDF47E06EE3CE
:1003B00070E08EE190E0DADFB2DEFFCFF894FFCF9D
:0403C0007C020700B4
:00000001FF
