:100000000EC028C027C026C025C024C023C022C0DF
:1000100021C020C01FC01EC01DC01CC01BC0112499
:100020001FBECFE5D2E0DEBFCDBF10E0A0E6B0E05E
:10003000E4EBF5E002C005900D92A039B107D9F7C5
:1000400020E0A0E9B0E001C01D92AA3AB207E1F7B2
:1000500063D2AEC2D5CF4091A900E42FF0E0EE0FFD
:10006000FF1FEF55FF4F918380832091A1003091B6
:10007000A2008091A3009091A400820F931F209171
:10008000A5003091A600820F931F2091A700309108
:10009000A800820F931F96958795969587954F5F39
:1000A000443019F04093A90008951092A9000895D2
:1000B0004091A000E42FF0E0EE0FFF1FE057FF4F4C
:1000C00091838083209190003091910080919200E3
:1000D00090919300820F931F20919400309195008E
:1000E000820F931F2091960030919700820F931FEB
:1000F0002091980030919900820F931F20919A00CF
:1001000030919B00820F931F20919C0030919D00A5
:10011000820F931F20919E0030919F00820F931FAA
:1001200033E0969587953A95E1F74F5F483019F09F
:100130004093A00008951092A000089517B887EA90
:1001400086B913B8089584B195B10895809360007D
:100150000895C39890916000992319F00000915080
:10016000FBCF98E080FF02C0C39A01C0C3982091E2
:100170006000222319F000002150FBCF869591509A
:1001800089F7C39A80916000882319F0000081509C
:10019000FBCF0895CF93DF93EC018991882311F071
:1001A000D8DFFBCFDF91CF9108950F931F93CF93AB
:1001B000DF93CDB7DEB727970FB6F894DEBF0FBE3B
:1001C000CDBF8C0180E289831F82C80117FF04C064
:1001D00088279927801B910BBE016E5F7F4F30D11E
:1001E00090E017FF08C02DE2E1E0F0E0EC0FFD1F0A
:1001F000E80FF91F2083212F209527FD019621E08C
:1002000030E02C0F3D1F820F931FC4DF27960FB6DF
:10021000F894DEBF0FBECDBFDF91CF911F910F913C
:1002200008950F931F93CF93DF93CDB7DEB7279732
:100230000FB6F894DEBF0FBECDBF8C0180E289837C
:100240001F82C80117FF04C088279927801B910BC4
:10025000BE016E5F7F4FF4D017FF08C0E1E0F0E011
:10026000EC0FFD1FE80FF11D8DE28083CE0101969A
:1002700091DF27960FB6F894DEBF0FBECDBFDF919A
:10028000CF911F910F910895CF93DF9300D000D0AD
:1002900000D0CDB7DEB71E82BE016F5F7F4FD0D0DA
:1002A00021E030E02C0F3D1F280F311DC90172DF06
:1002B00026960FB6F894DEBF0FBECDBFDF91CF916B
:1002C0000895CF93DF9300D000D000D0CDB7DEB734
:1002D0001E82BE016F5F7F4FB3D0CE0101965ADF01
:1002E00026960FB6F894DEBF0FBECDBFDF91CF913B
:1002F0000895CF93DF9300D000D01F92CDB7DEB723
:100300001D82BE016F5F7F4F90E0D4D0CE01039677
:1003100041DF0F900F900F900F900F90DF91CF91D2
:100320000895CF93DF9300D000D01F92CDB7DEB7F2
:100330001D82BE016F5F7F4FBDD0CE0101962ADFC7
:100340000F900F900F900F900F90DF91CF91089525
:10035000CF93DF93CDB7DEB761970FB6F894DEBFCA
:100360000FBECDBF198ABE016F5F7F4F90E0B9D03D
:1003700021E030E02C0F3D1F280F311DC9010ADF9D
:1003800061960FB6F894DEBF0FBECDBFDF91CF915F
:100390000895CF93DF93CDB7DEB761970FB6F8948A
:1003A000DEBF0FBECDBF198ABE016F5F7F4F90E0E9
:1003B00098D0CE010996EEDE61960FB6F894DEBFB6
:1003C0000FBECDBFDF91CF910895CF93DF93CDB70F
:1003D000DEB761970FB6F894DEBF0FBECDBF198AA6
:1003E000BE016F5F7F4F7DD021E030E02C0F3D1FBD
:1003F000280F311DC901CEDE61960FB6F894DEBF1D
:100400000FBECDBFDF91CF910895CF93DF93CDB7CE
:10041000DEB761970FB6F894DEBF0FBECDBF198A65
:10042000BE016F5F7F4F5DD0CE010196B3DE619656
:100430000FB6F894DEBF0FBECDBFDF91CF91089508
:10044000CF93DF93CDB7DEB72A970FB6F894DEBF10
:100450000FBECDBFAC018AE0E1E6F0E0DE0111960F
:1004600001900D928A95E1F7FE013196DB0120E0C3
:1004700084E06191719190E04617570720F09F5FEB
:10048000461B570BF9CF843039F4911104C0243046
:1004900011F090EF01C0822F905D9D932F5F25306A
:1004A00041F72A960FB6F894DEBF0FBECDBFDF919D
:1004B000CF910895AC0124E0942F9F709A3010F4EE
:1004C000905D01C0995CFB01938384E0569547954C
:1004D0008A95E1F72150615071092111EDCF84E037
:1004E0000895FC0120E08FE040E050E8E417F507B4
:1004F00030F0E41BF50B8F3021F4822F02C090E026
:1005000001C091E0905DDB019D93BD01569547953B
:100510002F5F203159F70895BB9AC39A8BE690E07C
:1005200039DE8EE690E036DE8BE690E033DE06DEE6
:1005300087B1807F87B987B18F72806987B987EE6D
:1005400093E00197F1F700C00000369AFCDDEC0162
:100550008AE790E01FDE8FE790E01CDECE0194DE9C
:1005600081E890E017DE84E890E014DE8FE790E009
:1005700011DECE0170DD88DE81E890E00BDE8AE8D6
:1005800090E008DE8FE790E005DECE0191DD7CDEB5
:1005900081E890E0FFDD9FE32DE083E09150204073
:1005A0008040E1F700C000008BE690E0F3DDCECFA5
:0405B000F894FFCFED
:1005B4000F1027E80364000A0001000D0A004845F3
:1005C4004C4C4F5B544553545D0061646378003D6B
:1005D400003B20006176672F34006176672F380076
:00000001FF
